:100000000C942A000C94C0010C94ED010C941A027B
:100010000C9447000C9447000C9447000C94470044
:100020000C9447000C9447000C948F030C948503A8
:100030000C9458030C94CF030C9447000C94FC03CD
:100040000C9447000C9447000C9447000C94470014
:100050000C94470011241FBECFE5D8E0DEBFCDBF12
:1000600010E0A0E6B0E0E6E5F8E002C005900D92F1
:10007000A636B107D9F720E0A6E6B0E001C01D9290
:10008000A837B207E1F70E946F000C9429040C9482
:100090000000CF93DF93C82FD62F41E00E94D600F7
:1000A00040E06D2F8C2F0E944B01DF91CF9108957E
:1000B00041E00E944B01089540E00E944B010895E9
:1000C00087E690E00E944403809167008093670078
:1000D0006091670080E190E00E94520208950E94C2
:1000E0004F0280E190E00E9470028093670065E01B
:1000F00080E00E94490066E080E00E94490064E0E0
:1001000080E00E94490064E080E00E94580080E6A0
:1001100090E00E9453030E9416030E94470281E070
:100120008093660080916700813069F464E080E02C
:100130000E94580066E080E00E945C0065E080E07C
:100140000E945C00ECCF80916700823069F464E02B
:1001500080E00E945C0066E080E00E945C0065E058
:1001600080E00E945800DBCF80916700843069F402
:1001700064E080E00E945C0066E080E00E9458003D
:1001800065E080E00E945C00CACF80916700883003
:1001900031F664E080E00E945C0066E080E00E944E
:1001A000580065E080E00E945800B9CF813011F11D
:1001B00030F08230D1F1833009F452C008954130DB
:1001C00059F42AB381E090E002C0880F991F6A9524
:1001D000E2F7822B8ABB089541115CC02AB381E00B
:1001E00090E002C0880F991F6A95E2F780958223FC
:1001F0008ABB0895413059F427B381E090E002C0F2
:10020000880F991F6A95E2F7822B87BB08954111E9
:1002100041C027B381E090E002C0880F991F6A9522
:10022000E2F78095822387BB0895413059F424B3C7
:1002300081E090E002C0880F991F6A95E2F7822B57
:1002400084BB0895411126C024B381E090E002C030
:10025000880F991F6A95E2F78095822384BB0895E1
:10026000413059F421B381E090E002C0880F991F1A
:100270006A95E2F7822B81BB089541110BC021B32F
:1002800081E090E002C0880F991F6A95E2F780959F
:10029000822381BB0895813011F130F08230D1F199
:1002A000833009F452C00895413059F42BB381E0F2
:1002B00090E002C0880F991F6A95E2F7822B8BBBF2
:1002C000089541115CC02BB381E090E002C0880F1B
:1002D000991F6A95E2F7809582238BBB0895413080
:1002E00059F428B381E090E002C0880F991F6A9505
:1002F000E2F7822B88BB0895411141C028B381E009
:1003000090E002C0880F991F6A95E2F780958223DA
:1003100088BB0895413059F425B381E090E002C0D4
:10032000880F991F6A95E2F7822B85BB08954111CA
:1003300026C025B381E090E002C0880F991F6A951E
:10034000E2F78095822385BB0895413059F422B3AA
:1003500081E090E002C0880F991F6A95E2F7822B36
:1003600082BB089541110BC022B381E090E002C02E
:10037000880F991F6A95E2F78095822382BB0895C2
:100380001F920F920FB60F9211242F933F934F930A
:100390005F936F937F938F939F93AF93BF93EF93ED
:1003A000FF930E944B02E0916C00F0916D0030973A
:1003B00009F009950E944702FF91EF91BF91AF911B
:1003C0009F918F917F916F915F914F913F912F916D
:1003D0000F900FBE0F901F9018951F920F920FB69F
:1003E0000F9211242F933F934F935F936F937F93BB
:1003F0008F939F93AF93BF93EF93FF930E944B0212
:10040000E0916A00F0916B00309709F009950E9425
:100410004702FF91EF91BF91AF919F918F917F9193
:100420006F915F914F913F912F910F900FBE0F9061
:100430001F9018951F920F920FB60F9211242F93B1
:100440003F934F935F936F937F938F939F93AF935C
:10045000BF93EF93FF930E944B02E0916800F091ED
:100460006900309709F009950E944702FF91EF91CA
:10047000BF91AF919F918F917F916F915F914F91BC
:100480003F912F910F900FBE0F901F9018958FB72F
:1004900080688FBF08958FB78F778FBF08950E94B0
:1004A000950208951F93CF93DF93D82F192FC62F4E
:1004B0000E94A402812F80650E94CD028D2F0E9490
:1004C000F6028C2F0E94F6020E94B5028FE39CE98F
:1004D0000197F1F700C00000DF91CF911F910895BF
:1004E0000F931F93CF93DF931F92CDB7DEB7082FE3
:1004F000192F19820E94A4021065812F0E94CD023B
:10050000802F0E94F6020E94BC02812F0E94E0020E
:10051000CE0101960E9405030E94B50289810F90C9
:10052000DF91CF911F910F91089588E480B981B137
:100530008E7F81B981B18D7F81B986B7806486BF96
:1005400086B7846086BF089586B7806286BF86B707
:10055000806886BF06B607FEFDCF81B1887F8830F0
:1005600011F480E0089581E0089586B7806186BF28
:1005700086B7806886BF089586B7806286BF86B7D3
:10058000806886BF06B607FEFDCF81B1887F8031C7
:1005900011F480E0089582E00895880F83B986B74A
:1005A0008F7D86BF86B7806886BF06B607FEFDCF03
:1005B00081B1887F883111F480E0089583E0089547
:1005C00090E0880F991F816083B986B78F7D86BFC1
:1005D00086B7806886BF06B607FEFDCF81B1887FEB
:1005E000803411F480E0089584E0089583B986B7DB
:1005F000806886BF06B607FEFDCF81B1887F88324E
:1006000011F480E0089585E00895FC0196B79068A4
:1006100096BF06B607FEFDCF91B1987F903521F4C5
:1006200083B1808380E0089586E0089541E066E02C
:1006300081E00E94D600E0916400F0916500108294
:10064000E0916400F0916500808180628083E09198
:100650006400F0916500808181608083E091640096
:10066000F0916500808180648083E0916400F09166
:10067000650080818F778083E0916400F091650050
:100680008081806880830895DC01E0916200F091B0
:10069000630090819923CCF7E0916000F0916100B4
:1006A00080818C93089590936F0080936E000895DD
:1006B0001F920F920FB60F9211242F933F934F93D7
:1006C0005F936F937F938F939F93AF93BF93EF93BA
:1006D000FF930E944B02E0916E00F0916F00309703
:1006E00009F009950E944702FF91EF91BF91AF91E8
:1006F0009F918F917F916F915F914F913F912F913A
:100700000F900FBE0F901F9018951F920F920FB66B
:100710000F9211240F900FBE0F901F9018951F92EB
:100720000F920FB60F9211242F933F934F935F9325
:100730006F937F938F939F93AF93BF93EF93FF93A9
:100740000E944B02809172009091730001969093E9
:100750007300809372008091720090917300892BD6
:1007600059F0E0917000F0917100309709F009950F
:1007700010927300109272000E944702FF91EF9155
:10078000BF91AF919F918F917F916F915F914F91A9
:100790003F912F910F900FBE0F901F9018951F92B1
:1007A0000F920FB60F9211242F933F934F935F93A5
:1007B0006F937F938F939F93AF93BF93EF93FF9329
:1007C0000E944B02E0917600F0917700309709F09B
:1007D00009950E944702FF91EF91BF91AF919F91C0
:1007E0008F917F916F915F914F913F912F910F90DA
:1007F0000FBE0F901F9018951F920F920FB60F9279
:1008000011242F933F934F935F936F937F938F9315
:100810009F93AF93BF93EF93FF930E944B02E0919E
:100820007400F0917500309709F009950E94470215
:10083000FF91EF91BF91AF919F918F917F916F91B8
:100840005F914F913F912F910F900FBE0F901F908E
:060850001895F894FFCF9B
:060856002F002E002D0012
:00000001FF
