S011000041746D6567615F33322E7372656300
S11300000C942A000C9452050C947F050C94AC05B6
S11300100C9447000C9447000C9447000C94470040
S11300200C9447000C9447000C9477060C946D06CE
S11300300C9447000C9447000C9447000C94470020
S11300400C9447000C9447000C9447000C94470010
S11300500C94470011241FBECFE5D8E0DEBFCDBF0E
S113006010E0A0E6B0E0E2E9F6E102C005900D92EE
S1130070AC3CB107D9F720E0ACECB0E001C01D9274
S1130080A63EB207E1F70E94CC020C94470B0C94F5
S1130090000041E062E080E00E940D0440E062E084
S11300A080E00E940D04089541E063E080E00E9436
S11300B0980341E062E080E00E94980341E064E03C
S11300C081E00E94980341E062E081E00E9498038D
S11300D041E061E081E00E94980341E060E081E05A
S11300E00E94980340E063E080E00E940D0440E039
S11300F062E080E00E940D0440E064E081E00E9440
S11301000D0440E062E081E00E940D0440E061E003
S113011081E00E940D0440E060E081E00E940D0453
S113012008951F93CF93DF931F92CDB7DEB7182F97
S11301301982CE0101960E94E1050E94DD0540E08E
S113014063E080E00E940D04412F441F4427441FB4
S113015064E081E00E940D0416FB442740F962E04C
S113016081E00E940D0415FB442740F961E081E021
S11301700E940D0414FB442740F960E081E00E94D2
S11301800D040E9449008FEB97E10197F1F700C03D
S1130190000013FB442740F964E081E00E940D0451
S11301A012FB442740F962E081E00E940D0411FB38
S11301B0442740F961E081E00E940D04412F417021
S11301C060E081E00E940D040E9449008FEB97E1FA
S11301D00197F1F700C0000089810E94E8050F90A3
S11301E0DF91CF911F910895CF93C82F41E063E031
S11301F080E00E940D044C2F441F4427441F64E0F8
S113020081E00E940D04C6FB442740F962E081E0CE
S11302100E940D04C5FB442740F961E081E00E947F
S11302200D04C4FB442740F960E081E00E940D0402
S11302300E944900C3FB442740F964E081E00E9426
S11302400D04C2FB442740F962E081E00E940D04E2
S1130250C1FB442740F961E081E00E940D044C2F6A
S1130260417060E081E00E940D040E94490087EC27
S113027090E00197F1F700C00000CF910895EF924C
S1130280FF920F931F93CF93DF931F92CDB7DEB7E7
S11302908C01F62EE42E1982CE0101960E94E1050E
S11302A00E94DD0582E0F81691F08F1520F0E1E060
S11302B0FE1641F01FC0F3E0FF1671F084E0F8165B
S11302C081F018C08FE78E0D0E94910013C08FEB50
S11302D08E0D0E9491000EC083E98E0D0E94910044
S11302E009C083ED8E0D0E94910004C00F5F1F4F63
S11302F00E94F400F80180818111F8CF89810E9465
S1130300E8050F90DF91CF911F910F91FF90EF902F
S113031008950E9454002FEF89EF90E0215080400F
S11303209040E1F700C0000088E30E9491008FE153
S11303309EE40197F1F700C0000088E30E94910059
S113034087E592E00197F1F700C0000088E30E947E
S1130350910081E00E94910082E00E94910086E079
S11303600E9491008CE00E94910088E20E9491001A
S113037080E80E94910081E00E9491008CE00E943C
S113038091000895E62FF72F26E0DF011D922A95AC
S1130390E9F79F938F9383EC90E09F938F937F93E0
S11303A06F930E945D080F900F900F900F900F9025
S11303B00F900895CF93DF93C82FD62F41E00E946A
S11303C0980340E06D2F8C2F0E940D04DF91CF9194
S11303D0089541E00E940D04089540E00E940D0438
S11303E0089541E066E082E00E94980340E066E000
S11303F082E00E940D04089541E066E082E00E94DC
S11304000D04089540E066E082E00E940D04089522
S113041041E062E08FE690E00E943F0184ED90E0CD
S11304200E948F036091D4007091D50080E090E029
S11304300E94560720E030E44CE955E40E94E407AA
S113044020E038ED4FE156E40E94B5060E942707EC
S11304507093D5006093D4008091D4009091D5001E
S113046060EE70E00E94C20141E064E080E690E04A
S11304700E943F0181E08093CC001092CD00109245
S1130480CE001092CF001092D0001092D1001092A2
S1130490D2001092D3000E94FC0167E081E00E9428
S11304A0E90164E080E00E94ED0140E164E080EE57
S11304B090E00E943F01089540E067E080E00E94E0
S11304C0980341E067E080E00E940D04089567E02E
S11304D081E00E94DA0166E080E00E94DA0164E0D3
S11304E080E00E94DA010E94F1010E945C020E94F5
S11304F0890142E068E072E080E00E94C50481E086
S11305000E945E030E945E060E94D905089562E07F
S113051083E00E948204882341F067E080E00E9427
S11305208204882321F080E0089581E0089581E029
S1130530089582E30E94B30608958AEF0E94B306E9
S1130540089581E08093CC001092CD001092CE00EB
S11305501092CF001092D0001092D1001092D200CD
S11305601092D30041E061E089E990E00E943F01EC
S113057066E080E00E94E90164E080E00E94ED0111
S11305800E949D02089567E080E00E948204811128
S113059002C00E94A10208950E9467020E94C30241
S11305A00E9487028111FACF0091CC001091CD00F6
S11305B0D091CE00C091CF00B091D000A091D100D5
S11305C0F091D200F090D300202F312F4D2F5C2FCB
S11305D06B2F7A2F8F2F9F2D2F39E6E83E07E1E00E
S11305E04E075105610571058105910509F0A0F4D7
S11305F0A1E00E9451082093CC003093CD00409399
S1130600CE005093CF006093D0007093D1008093BC
S1130610D2009093D300C2CF202F312F4D2F5C2FC7
S11306206B2F7A2F8F2F9F2D203A3648414051054A
S1130630610571058105910509F0B0CF0E940202A0
S113064067E081E00E94ED0166E080E00E94ED0138
S113065064E080E00E94E90141E061E08EEA90E01C
S11306600E943F0141E062E084E890E00E943F0183
S11306700E9499022091CC003091CD004091CE008F
S11306805091CF006091D0007091D1008091D20040
S11306909091D300A1E00E9451082093CC003093A4
S11306A0CD004093CE005093CF006093D000709360
S11306B0D1008093D2009093D30070CF96B19F77EE
S11306C096B997B19F7797B997B1906497B997B155
S11306D09F7D97B996B1916096B996B1926096B99B
S11306E096B1946096B996B1977F96B996B1906198
S11306F096B990B79F7D90BF90B7906490BF90B724
S11307009F7790BF97B1907E97B997B1892B87B99E
S113071086B1806286B986B1806886B90895FC0185
S113072096B1906196B984B195B19183808308950F
S1130730813011F130F08230D1F1833009F452C0AC
S11307400895413059F42AB381E090E002C0880F43
S1130750991F6A95E2F7822B8ABB089541115CC008
S11307602AB381E090E002C0880F991F6A95E2F7EE
S1130770809582238ABB0895413059F427B381E0E0
S113078090E002C0880F991F6A95E2F7822B87BB1D
S11307900895411141C027B381E090E002C0880F61
S11307A0991F6A95E2F78095822387BB08954130AB
S11307B059F424B381E090E002C0880F991F6A9530
S11307C0E2F7822B84BB0895411126C024B381E053
S11307D090E002C0880F991F6A95E2F78095822302
S11307E084BB0895413059F421B381E090E002C004
S11307F0880F991F6A95E2F7822B81BB08954111F6
S11308000BC021B381E090E002C0880F991F6A9564
S1130810E2F78095822381BB0895813011F130F095
S11308208230D1F1833009F452C00895413059F433
S11308302BB381E090E002C0880F991F6A95E2F71C
S1130840822B8BBB089541115CC02BB381E090E0F7
S113085002C0880F991F6A95E2F7809582238BBBAB
S11308600895413059F428B381E090E002C0880F24
S1130870991F6A95E2F7822B88BB0895411141C004
S113088028B381E090E002C0880F991F6A95E2F7CF
S11308908095822388BB0895413059F425B381E0C3
S11308A090E002C0880F991F6A95E2F7822B85BBFE
S11308B00895411126C025B381E090E002C0880F5D
S11308C0991F6A95E2F78095822385BB089541308C
S11308D059F422B381E090E002C0880F991F6A9511
S11308E0E2F7822B82BB089541110BC022B381E051
S11308F090E002C0880F991F6A95E2F780958223E1
S113090082BB0895813079F028F08230A9F08330D9
S1130910E1F024C089B390E002C0959587956A956B
S1130920E2F78170089586B390E002C095958795AB
S11309306A95E2F78170089583B390E002C09595BB
S113094087956A95E2F78170089580B390E002C0BC
S1130950959587956A95E2F78170089580E00895EA
S1130960613049F018F0623059F008959093DB003B
S11309708093DA0008959093D9008093D800089565
S11309809093D7008093D6000895CF93DF93C82F18
S1130990CB01D42F6C2F0E94B004C130B1F120F0F0
S11309A0C23009F463C07BC040E062E083E00E948F
S11309B0980341E062E083E00E940D048BB78064F9
S11309C08BBFD13069F028F0D23089F0D330B1F048
S11309D066C085B78E7F85BF85B78D7F85BF5FC0B5
S11309E085B7816085BF85B78D7F85BF58C085B7C2
S11309F08E7F85BF85B7826085BF51C085B7816012
S1130A0085BF85B7826085BF4AC040E063E083E06C
S1130A100E94980341E063E083E00E940D048BB7D9
S1130A2080688BBFD13069F028F0D23089F0D330A0
S1130A30B1F035C085B78B7F85BF85B7877F85BF0C
S1130A402EC085B7846085BF85B7877F85BF27C0E3
S1130A5085B78B7F85BF85B7886085BF20C085B784
S1130A60846085BF85B7886085BF19C08BB78062F5
S1130A708BBF40E062E081E00E94980341E062E0C5
S1130A8081E00E940D04D23019F0D33029F007C060
S1130A9084B78F7B84BF03C084B7806484BFDF9135
S1130AA0CF9108951F920F920FB60F9211242F9396
S1130AB03F934F935F936F937F938F939F93AF93E2
S1130AC0BF93EF93FF930E94DD05E091DA00F0916C
S1130AD0DB00309709F009950E94D905FF91EF9149
S1130AE0BF91AF919F918F917F916F915F914F9142
S1130AF03F912F910F900FBE0F901F9018951F924A
S1130B000F920FB60F9211242F933F934F935F933D
S1130B106F937F938F939F93AF93BF93EF93FF93C1
S1130B200E94DD05E091D800F091D900309709F0DA
S1130B3009950E94D905FF91EF91BF91AF919F91C3
S1130B408F917F916F915F914F913F912F910F9072
S1130B500FBE0F901F9018951F920F920FB60F9211
S1130B6011242F933F934F935F936F937F938F93AE
S1130B709F93AF93BF93EF93FF930E94DD05E091A2
S1130B80D600F091D700309709F009950E94D90555
S1130B90FF91EF91BF91AF919F918F917F916F9151
S1130BA05F914F913F912F910F900FBE0F901F9027
S1130BB018958FB780688FBF08958FB78F778FBFD1
S1130BC00895FC019FB7991F9927991F9083089551
S1130BD0813019F40E94D9050895811102C00E9440
S1130BE0DD05089581110AC083B78E7F83BF83B763
S1130BF08D7F83BF83B78B7F83BF0895813051F48A
S1130C0083B7816083BF83B78D7F83BF83B78B7FB7
S1130C1083BF0895823051F483B78E7F83BF83B737
S1130C20826083BF83B78B7F83BF0895833051F481
S1130C3083B7816083BF83B7826083BF83B78B7FB1
S1130C4083BF0895843051F483B78E7F83BF83B705
S1130C508D7F83BF83B7846083BF0895853049F453
S1130C6083B7816083BF83B78D7F83BF83B784607D
S1130C7083BF0895811107C083B78F7E83BF83B775
S1130C808F7D83BF0895813039F483B7806183BF3A
S1130C9083B78F7D83BF0895823039F483B78F7E05
S1130CA083BF83B7806283BF0895833031F483B7F1
S1130CB0806183BF83B7806283BF089583B78F7BCE
S1130CC083BF83B7886083BF81E00E943A0684E6CD
S1130CD08CBF84E00E94F20508951F920F920FB614
S1130CE00F9211240F900FBE0F901F9018951F9212
S1130CF00F920FB60F9211242F933F934F935F934C
S1130D006F937F938F939F93AF93BF93EF93FF93CF
S1130D108091DE009091DF0001969093DF00809334
S1130D20DE008091DE009091DF00892B59F0E09184
S1130D30DC00F091DD00309709F009951092DF0096
S1130D401092DE00FF91EF91BF91AF919F918F912F
S1130D507F916F915F914F913F912F910F900FBEB3
S1130D600F901F9018958CBF08950E94C9060C948B
S1130D70AA070E94A30758F00E949C0740F029F498
S1130D805F3F29F00C94930751110C94DE070C94E7
S1130D9099070E94BB0768F39923B1F3552391F394
S1130DA0951B550BBB27AA2762177307840738F0D6
S1130DB09F5F5F4F220F331F441FAA1FA9F335D033
S1130DC00E2E3AF0E0E832D091505040E695001CE7
S1130DD0CAF72BD0FE2F29D0660F771F881FBB1FA1
S1130DE0261737074807AB07B0E809F0BB0B802D7F
S1130DF0BF01FF2793585F4F3AF09E3F510578F0AB
S1130E000C9493070C94DE075F3FE4F3983ED4F30D
S1130E10869577956795B795F7959F5FC9F7880F7E
S1130E20911D9695879597F90895E1E0660F771FD0
S1130E30881FBB1F621773078407BA0720F0621B61
S1130E40730B840BBA0BEE1F88F7E09508950E948C
S1130E50C30788F09F5798F0B92F9927B751B0F07E
S1130E60E1F0660F771F881F991F1AF0BA95C9F72A
S1130E7014C0B13091F00E94DD07B1E008950C94E4
S1130E80DD07672F782F8827B85F39F0B93FCCF397
S1130E90869577956795B395D9F73EF490958095A7
S1130EA0709561957F4F8F4F9F4F0895E89409C0C7
S1130EB097FB3EF490958095709561957F4F8F4F89
S1130EC09F4F9923A9F0F92F96E9BB279395F6959F
S1130ED0879577956795B795F111F8CFFAF4BB0F1D
S1130EE011F460FF1BC06F5F7F4F8F4F9F4F16C081
S1130EF0882311F096E911C0772321F09EE8872F0B
S1130F00762F05C0662371F096E8862F70E060E0C6
S1130F102AF09A95660F771F881FDAF7880F96953F
S1130F20879597F9089597F99F6780E870E060E0E6
S1130F3008959FEF80EC089500240A94161617066E
S1130F4018060906089500240A94121613061406B6
S1130F5005060895092E0394000C11F4882352F019
S1130F60BB0F40F4BF2B11F460FF04C06F5F7F4FD1
S1130F708F4F9F4F089557FD9058440F551F59F0B8
S1130F805F3F71F04795880F97FB991F61F09F3F72
S1130F9079F087950895121613061406551FF2CF9B
S1130FA04695F1DF08C0161617061806991FF1CFEB
S1130FB086957105610508940895E894BB27662712
S1130FC07727CB0197F908950E94F7070C94AA0795
S1130FD00E949C0738F00E94A30720F0952311F08B
S1130FE00C9493070C94990711240C94DE070E9427
S1130FF0BB0770F3959FC1F3950F50E0551F629F97
S1131000F001729FBB27F00DB11D639FAA27F00D5D
S1131010B11DAA1F649F6627B00DA11D661F829F84
S11310202227B00DA11D621F739FB00DA11D621F69
S1131030839FA00D611D221F749F3327A00D611D86
S1131040231F849F600D211D822F762F6A2F112468
S11310509F5750409AF0F1F088234AF0EE0FFF1F9B
S1131060BB1F661F771F881F91505040A9F79E3FF2
S1131070510580F00C9493070C94DE075F3FE4F372
S1131080983ED4F3869577956795B795F795E79548
S11310909F5FC1F7FE2B880F911D9695879597F951
S11310A008950024A7FD00942A0F301D401D501DF3
S11310B0601D701D801D901D0895AEE0B0E0E3E654
S11310C0F8E00C941E0B0D891E8986E08C831A832C
S11310D009838FEF9FE79E838D83AE01475E5F4F49
S11310E06F89788DCE0101960E947F08EF81F88583
S11310F0E00FF11F10822E96E4E00C943A0BABE063
S1131100B0E0E5E8F8E00C94100B6C017B018A0177
S1131110FC0117821682838181FFCCC1CE01019626
S11311203C01F6019381F70193FD859193FF819131
S11311307F01882309F4BAC1853239F493FD85917E
S113114093FF81917F01853229F4B60190E00E94DA
S1131150760AE7CF912C212C312CFFE1F315D8F03E
S11311608B3279F038F4803279F08332A1F4232D74
S113117020611DC08D3261F0803369F4232D21601C
S113118016C0832D8260382EE32DE4603E2E2AC0E3
S1131190F32DF8601DC037FC2DC020ED280F2A3038
S11311A040F08E32B9F436FC81C1232D2064322EF6
S11311B019C036FE06C08AE0989E200D1124922E96
S11311C011C0EAE02E9E200D1124222EF32DF06290
S11311D03F2E08C08C3621F4832D8068382E02C03F
S11311E0883641F4F70193FD859193FF81917F0146
S11311F08111B3CF982F9F7D9554933028F40C5FC1
S11312001F4F9FE399830DC0833631F0833771F00C
S1131210833509F059C021C0F801808189830E5FAC
S11312201F4F88248394912C530113C02801F2E0AA
S11312304F0E511CF801A080B18036FE03C0692D09
S113124070E002C06FEF7FEFC5010E946B0A4C0192
S11312508201F32DFF773F2E16C0280122E0420EB3
S1131260511CF801A080B18036FE03C0692D70E0E6
S113127002C06FEF7FEFC5010E94600A4C01F32D9D
S1131280F0683F2E820133FC1BC0822D90E088164B
S11312909906B0F4B60180E290E00E94760A2A949E
S11312A0F4CFF50137FC859137FE81915F01B601DA
S11312B090E00E94760A21102A9421E0821A910873
S11312C08114910471F7E8C0843611F0893641F530
S11312D0F80137FE07C060817181828193810C5FC0
S11312E01F4F08C060817181072E000C880B990B79
S11312F00E5F1F4FF32DFF763F2E97FF09C0909589
S11313008095709561957F4F8F4F9F4FF0683F2E6A
S11313102AE030E0A3010E94B20A882E861845C054
S1131320853731F4232D2F7EB22E2AE030E025C0FC
S1131330932D997FB92E8F36C1F018F4883579F042
S1131340B5C0803719F0883721F0B0C0E92FE061CB
S1131350BE2EB4FE0DC0FB2DF460BF2E09C034FEBA
S11313600AC0292F2660B22E06C028E030E005C04E
S113137020E130E002C020E132E0F801B7FE07C00E
S113138060817181828193810C5F1F4F06C06081EF
S1131390718180E090E00E5F1F4FA3010E94B20AAA
S11313A0882E8618FB2DFF773F2E36FE0DC0232D89
S11313B02E7FA22E891458F434FE0BC032FC09C0CF
S11313C0832D8E7EA82E05C0B82CA32C03C0B82C68
S11313D001C0B92CA4FE0FC0FE01E80DF11D8081EF
S11313E0803321F49A2D997EA92E09C0A2FE06C04D
S11313F0B394B39404C08A2D867809F0B394A3FC03
S113140011C0A0FE06C0B21488F4280C922C9B18BC
S11314100EC0B21460F4B60180E290E00E94760A35
S1131420B394F7CFB21418F42B1802C0982C212CC3
S1131430A4FE10C0B60180E390E00E94760AA2FEEA
S113144017C0A1FC03C088E790E002C088E590E0E3
S1131450B6010CC08A2D867859F0A1FE02C08BE239
S113146001C080E2A7FC8DE2B60190E00E94760AFA
S1131470891438F4B60180E390E00E94760A9A94C5
S1131480F7CF8A94F301E80DF11D8081B60190E055
S11314900E94760A8110F5CF222009F442CEB601CB
S11314A080E290E00E94760A2A94F6CFF6018681C3
S11314B0978102C08FEF9FEF2B96E2E10C942C0BE7
S11314C0FC010590615070400110D8F7809590950B
S11314D08E0F9F1F0895FC01615070400190011010
S11314E0D8F7809590958E0F9F1F08950F931F93A3
S11314F0CF93DF93FB01238121FD03C08FEF9FEF87
S11315002CC022FF16C046815781248135814217A1
S1131510530744F4A081B1819D012F5F3F4F318374
S113152020838C93268137812F5F3F4F3783268317
S113153014C08B01EC01FB010084F185E02D0995B9
S1131540892BE1F6D80116968D919C9117970196F7
S113155017969C938E931697CE01DF91CF911F918E
S11315600F910895FA01AA27283051F1203181F111
S1131570E8946F936E7F6E5F7F4F8F4F9F4FAF4F97
S1131580B1E03ED0B4E03CD0670F781F891F9A1FAA
S1131590A11D680F791F8A1F911DA11D6A0F711D5E
S11315A0811D911DA11D20D009F468943F912AE06A
S11315B0269F11243019305D3193DEF6CF01089552
S11315C0462F4770405D4193B3E00FD0C9F7F6CF83
S11315D0462F4F70405D4A3318F0495D31FD40524B
S11315E0419302D0A9F7EACFB4E0A69597958795E1
S11315F077956795BA95C9F70097610571050895C0
S11316009B01AC010A2E069457954795379527956B
S1131610BA95C9F7620F731F841F951FA01D089503
S11316202F923F924F925F926F927F928F929F92EE
S1131630AF92BF92CF92DF92EF92FF920F931F93DC
S1131640CF93DF93CDB7DEB7CA1BDB0B0FB6F8948D
S1131650DEBF0FBECDBF09942A88398848885F84CD
S11316606E847D848C849B84AA84B984C884DF803E
S1131670EE80FD800C811B81AA81B981CE0FD11D22
S11316800FB6F894DEBF0FBECDBFED010895F894F8
S1051690FFCF86
S113169254656D702076616C75652069732000460F
S11316A24C414D4520444554454354454420202053
S11316B2202020004E4F20464C414D4520444554A5
S11316C24543544544202020004741532044455477
S11316D245435445442020202020202020004E4F02
S11316E22047415320444554454354454420202037
S10F16F220200025640025302E31660005
S9030000FC
