:100000000C942A000C9439060C9466060C94930602
:100010000C9447000C9447000C9447000C94470044
:100020000C9447000C9447000C94C4070C94BA0736
:100030000C9412070C9458080C9447000C948508F3
:100040000C9447000C9447000C9447000C94470014
:100050000C94470011241FBECFE5D8E0DEBFCDBF12
:1000600010E0A0E6B0E0ECE7FBE102C005900D92E5
:10007000AE3EB107D9F721E0AEEEB0E001C01D926F
:10008000AF30B207E1F70E94A6030C94BC0D0C94AC
:10009000000041E062E080E00E94F40440E062E0A1
:1000A00080E00E94F404089541E063E080E00E9453
:1000B0007F0441E062E080E00E947F0441E064E070
:1000C00081E00E947F0441E062E081E00E947F04C1
:1000D00041E061E081E00E947F0441E060E081E076
:1000E0000E947F0440E063E080E00E94F40440E06E
:1000F00062E080E00E94F40440E064E081E00E945D
:10010000F40440E062E081E00E94F40440E061E039
:1001100081E00E94F40440E060E081E00E94F40489
:1001200008951F93CF93DF931F92CDB7DEB7182F9B
:100130001982CE0101960E94C8060E94C40640E0C2
:1001400063E080E00E94F404412F441F4427441FD1
:1001500064E081E00E94F40416FB442740F962E069
:1001600081E00E94F40415FB442740F961E081E03E
:100170000E94F40414FB442740F960E081E00E94EF
:10018000F4040E9449008FEB97E10197F1F700C05A
:10019000000013FB442740F964E081E00E94F4046E
:1001A00012FB442740F962E081E00E94F40411FB55
:1001B000442740F961E081E00E94F404412F41703E
:1001C00060E081E00E94F4040E9449008FEB97E117
:1001D0000197F1F700C0000089810E94CF060F90BF
:1001E000DF91CF911F910895CF93C82F41E063E035
:1001F00080E00E94F4044C2F441F4427441F64E015
:1002000081E00E94F404C6FB442740F962E081E0EB
:100210000E94F404C5FB442740F961E081E00E949C
:10022000F404C4FB442740F960E081E00E94F40438
:100230000E944900C3FB442740F964E081E00E942A
:10024000F404C2FB442740F962E081E00E94F40418
:10025000C1FB442740F961E081E00E94F4044C2F87
:10026000417060E081E00E94F4040E94490087EC44
:1002700090E00197F1F700C00000CF910895FF9240
:100280000F931F93CF93DF931F92CDB7DEB7082F45
:10029000162FF42E1982CE0101960E94C8060E94E4
:1002A000C406123071F018F4113031F018C0133058
:1002B00069F0143081F013C08FE78F0D0E94910018
:1002C0000EC08FEB8F0D0E94910009C083E98F0D46
:1002D0000E94910004C083ED8F0D0E949100802F39
:1002E0000E94F40089810E94CF060F90DF91CF9188
:1002F0001F910F91FF900895EF92FF920F931F931C
:10030000CF93DF931F92CDB7DEB78C01F62EE42E8C
:100310001982CE0101960E94C8060E94C40682E09E
:10032000F81691F08F1520F0E1E0FE1641F01FC0A5
:10033000F3E0FF1671F084E0F81681F018C08FE743
:100340008E0D0E94910013C08FEB8E0D0E949100C4
:100350000EC083E98E0D0E94910009C083ED8E0DC1
:100360000E94910004C00F5F1F4F0E94F400F8012B
:1003700080818111F8CF89810E94CF060F90DF9193
:10038000CF911F910F91FF90EF9008950E9454001C
:100390002FEF89EF90E0215080409040E1F700C0BE
:1003A000000088E30E9491008FE19EE40197F1F73D
:1003B00000C0000088E30E94910087E592E0019769
:1003C000F1F700C0000088E30E94910081E00E94E4
:1003D000910082E00E94910086E00E9491008CE0F2
:1003E0000E94910088E20E94910080E80E949100A2
:1003F00081E00E9491008CE00E9491000895E62F18
:10040000F72F26E0DF011D922A95E9F79F938F933E
:1004100085EE90E09F938F937F936F930E94D20A13
:100420000F900F900F900F900F900F900895CF9313
:10043000DF93C82FD62F41E00E947F0440E06D2F4C
:100440008C2F0E94F404DF91CF91089541E00E9427
:10045000F404089540E00E94F404089541E066E049
:1004600082E00E947F0440E066E082E00E94F404A3
:10047000089541E066E082E00E94F404089540E0BF
:1004800066E082E00E94F4040895CF93C1E0C09337
:10049000EF0065E080E00E94260241E062E08DE826
:1004A00090E00E947C018BEF90E00E9476046091C6
:1004B000FB007091FC0080E090E00E94530920E076
:1004C00030E44CE955E40E94E10920E038ED4FE1C9
:1004D00056E40E94B2080E9424097093FC006093C5
:1004E000FB008091FB009091FC0069E071E00E94AC
:1004F000FF0141E064E08EE790E00E947C01C09340
:10050000F3001092F4001092F5001092F600109291
:10051000F7001092F8001092F9001092FA000E9471
:10052000390264E080E00E942A0240E164E089E050
:1005300091E00E947C01CF91089581EF90E00E94AC
:100540004A088091F1008C3439F44FE063E088E68A
:1005500090E00E947C0108958091F100823531F491
:100560004FE063E081E690E00E947C010895809175
:10057000EE0081113FC08091F000811108C0809190
:10058000EF00811104C081E00E94050723C0809123
:10059000F000811108C08091EF00813021F482E0E9
:1005A0000E94050717C08091F000813041F48091CE
:1005B000EF00811104C084E00E9405070BC0809108
:1005C000F000813039F48091EF00813019F488E037
:1005D0000E9405078091600044E161E00E943F01B4
:1005E000809160008F5F809360008091EE008F5F4C
:1005F0008093EE00089540E067E080E00E947F0471
:1006000041E067E080E00E94F404089562E083E046
:100610000E946905882341F067E080E00E94690537
:10062000882321F080E0089581E0089581E0089515
:1006300086E90E94E807089566E080E00E941702BC
:1006400064E080E00E94170265E080E00E941702EB
:100650000E942E020E94FB020E94C60142E065E455
:1006600072E080E00E94AC0542E067EB72E081E05E
:100670000E94AC0581E00E9445040E94B6070E94DA
:10068000A2078DE992E00E94530880E895E20E945B
:100690002D080E94D90641E063E08FE690E00E94B9
:1006A0007C014FE063E088E690E00E947C010E94BC
:1006B000C00664E080E00E94260241E061E08BEC2D
:1006C00090E00E947C0141E062E082EA90E00E94BA
:1006D0007C010E94180308958091F200811106C0E8
:1006E0008AEF0E94E80781E08093F2000895CF939B
:1006F000C1E0C093F00041E061E087EB90E00E9430
:100700007C0166E080E00E94260264E080E00E94B6
:100710002A020E946C03C093F3001092F40010921E
:10072000F5001092F6001092F7001092F800109267
:10073000F9001092FA00CF91089567E080E00E94DE
:100740006905811102C00E94770308950E941C036D
:100750001092EE000E949D030E9406038111F8CFC3
:100760000091F3001091F400D091F500C091F600D3
:10077000B091F700A091F800F091F900F090FA0024
:10078000202F312F4D2F5C2F6B2F7A2F8F2F9F2DE6
:100790002F39E6E83E07E1E04E0751056105710596
:1007A0008105910509F0A0F4A1E00E94C60A2093FA
:1007B000F3003093F4004093F5005093F6006093FB
:1007C000F7007093F8008093F9009093FA00C0CF7F
:1007D000202F312F4D2F5C2F6B2F7A2F8F2F9F2D96
:1007E000203A364841405105610571058105910562
:1007F00009F048C01092EE001092F0001092EF0045
:100800000E943F0265E080E00E942A0266E080E0EC
:100810000E942A0264E080E00E94260241E061E03A
:100820008BEC90E00E947C0141E062E082EA90E083
:100830000E947C010E9418031092F2002091F300A4
:100840003091F4004091F5005091F6006091F7006E
:100850007091F8008091F9009091FA00A1E00E9457
:10086000C60A2093F3003093F4004093F5005093B0
:10087000F6006093F7007093F8008093F90090936E
:10088000FA0066CF1092EE0063CF96B19F7796B9CB
:1008900097B19F7797B997B1906497B997B19F7DBA
:1008A00097B996B1916096B996B1926096B996B1A2
:1008B000946096B996B1977F96B996B1906196B9C2
:1008C00090B79F7D90BF90B7906490BF90B79F778F
:1008D00090BF97B1907E97B997B1892B87B986B1B0
:1008E000806286B986B1806886B90895FC0196B1A8
:1008F000906196B984B195B19183808308958130D8
:1009000011F130F08230D1F1833009F452C00895F2
:10091000413059F42AB381E090E002C0880F991F5A
:100920006A95E2F7822B8ABB089541115CC02AB315
:1009300081E090E002C0880F991F6A95E2F78095E8
:1009400082238ABB0895413059F427B381E090E0B7
:1009500002C0880F991F6A95E2F7822B87BB089522
:10096000411141C027B381E090E002C0880F991F78
:100970006A95E2F78095822387BB0895413059F448
:1009800024B381E090E002C0880F991F6A95E2F7D6
:10099000822B84BB0895411126C024B381E090E0EE
:1009A00002C0880F991F6A95E2F78095822384BB65
:1009B0000895413059F421B381E090E002C0880FDE
:1009C000991F6A95E2F7822B81BB089541110BC0F4
:1009D00021B381E090E002C0880F991F6A95E2F789
:1009E0008095822381BB0895813011F130F08230EF
:1009F000D1F1833009F452C00895413059F42BB33A
:100A000081E090E002C0880F991F6A95E2F7822B7F
:100A10008BBB089541115CC02BB381E090E002C014
:100A2000880F991F6A95E2F7809582238BBB089502
:100A3000413059F428B381E090E002C0880F991F3B
:100A40006A95E2F7822B88BB0895411141C028B313
:100A500081E090E002C0880F991F6A95E2F78095C7
:100A6000822388BB0895413059F425B381E090E09A
:100A700002C0880F991F6A95E2F7822B85BB089503
:100A8000411126C025B381E090E002C0880F991F74
:100A90006A95E2F78095822385BB0895413059F429
:100AA00022B381E090E002C0880F991F6A95E2F7B7
:100AB000822B82BB089541110BC022B381E090E0EC
:100AC00002C0880F991F6A95E2F78095822382BB46
:100AD0000895813079F028F08230A9F08330E1F078
:100AE00024C089B390E002C0959587956A95E2F796
:100AF0008170089586B390E002C0959587956A95B8
:100B0000E2F78170089583B390E002C095958795D0
:100B10006A95E2F78170089580B390E002C09595E0
:100B200087956A95E2F78170089580E008956130B5
:100B300049F018F0623059F00895909302018093C3
:100B400001010895909300018093FF000895909310
:100B5000FE008093FD000895CF93DF93C82FCB0153
:100B6000D42F6C2F0E949705C130B1F120F0C23014
:100B700009F463C07BC040E062E083E00E947F0430
:100B800041E062E083E00E94F4048BB780648BBF95
:100B9000D13069F028F0D23089F0D330B1F066C09E
:100BA00085B78E7F85BF85B78D7F85BF5FC085B7D1
:100BB000816085BF85B78D7F85BF58C085B78E7F23
:100BC00085BF85B7826085BF51C085B7816085BF0D
:100BD00085B7826085BF4AC040E063E083E00E9441
:100BE0007F0441E063E083E00E94F4048BB78068F7
:100BF0008BBFD13069F028F0D23089F0D330B1F01A
:100C000035C085B78B7F85BF85B7877F85BF2EC0F1
:100C100085B7846085BF85B7877F85BF27C085B7C7
:100C20008B7F85BF85B7886085BF20C085B784600E
:100C300085BF85B7886085BF19C08BB780628BBFC1
:100C400040E062E081E00E947F0441E062E081E0F8
:100C50000E94F404D23019F0D33029F007C084B7D1
:100C60008F7B84BF03C084B7806484BFDF91CF9142
:100C700008951F920F920FB60F9211242F933F9356
:100C80004F935F936F937F938F939F93AF93BF9394
:100C9000EF93FF930E94C406E0910101F0910201DD
:100CA000309709F009950E94C006FF91EF91BF911E
:100CB000AF919F918F917F916F915F914F913F91F4
:100CC0002F910F900FBE0F901F9018951F920F92AB
:100CD0000FB60F9211242F933F934F935F936F930F
:100CE0007F938F939F93AF93BF93EF93FF930E9454
:100CF000C406E091FF00F0910001309709F00995DA
:100D00000E94C006FF91EF91BF91AF919F918F918B
:100D10007F916F915F914F913F912F910F900FBEF7
:100D20000F901F9018951F920F920FB60F921124DB
:100D30002F933F934F935F936F937F938F939F93E3
:100D4000AF93BF93EF93FF930E94C406E091FD0021
:100D5000F091FE00309709F009950E94C006FF91BE
:100D6000EF91BF91AF919F918F917F916F915F9123
:100D70004F913F912F910F900FBE0F901F9018959C
:100D80008FB780688FBF08958FB78F778FBF089513
:100D9000FC019FB7991F9927991F9083089581306F
:100DA00019F40E94C0060895811102C00E94C40671
:100DB000089541E065E081E00E947F0441E067E042
:100DC00081E00E947F04E091E300F091E400108252
:100DD000E091E300F091E400808180618083E09104
:100DE000E300F091E400808180628083E091E30081
:100DF000F091E400808181608083E091E300F091D4
:100E0000E4008081806480830895E091DF00F091A8
:100E1000E0008083E091E100F091E200808188238E
:100E2000CCF708951F920F920FB60F9211242F93B3
:100E30003F934F935F936F937F938F939F93AF9362
:100E4000BF93EF93FF930E94C406E0910301F091DA
:100E50000401309709F009950E94C006FF91EF91B7
:100E6000BF91AF919F918F917F916F915F914F91C2
:100E70003F912F910F900FBE0F901F9018958111E9
:100E80000AC083B78E7F83BF83B78D7F83BF83B74D
:100E90008B7F83BF0895813051F483B7816083BF16
:100EA00083B78D7F83BF83B78B7F83BF08958230E5
:100EB00051F483B78E7F83BF83B7826083BF83B7CC
:100EC0008B7F83BF0895833051F483B7816083BFE4
:100ED00083B7826083BF83B78B7F83BF08958430DD
:100EE00051F483B78E7F83BF83B78D7F83BF83B772
:100EF000846083BF0895853049F483B7816083BFE0
:100F000083B78D7F83BF83B7846083BF08958111CA
:100F100007C083B78F7E83BF83B78F7D83BF08955C
:100F2000813039F483B78F7E83BF83B7806283BFFC
:100F30000895823031F483B7806183BF83B78062C4
:100F400083BF089583B7806483BF83B7877F83BFE0
:100F500081E00E94870741E063E081E00E947F0416
:100F600084E68CBF82E00E943F07089589B78260C3
:100F700089BF08951F920F920FB60F9211240F9000
:100F80000FBE0F901F9018951F920F920FB60F92E1
:100F900011242F933F934F935F936F937F938F937E
:100FA0009F93AF93BF93EF93FF930E94C406FF916B
:100FB000EF91BF91AF919F918F917F916F915F91D1
:100FC0004F913F912F910F900FBE0F901F9018954A
:100FD0008CBF08958F929F92AF92BF92CF92DF9273
:100FE000EF92FF920F931F93CF93DF93599B03C010
:100FF00000B406FC25C0EB014C01282F392D40E040
:1010000050E060E070E080E090E004E00E94AD0A13
:10101000A22EB32EC42ED52EE62EF72E082F192F72
:1010200020E034E244EF50E060E070E080E090E0E7
:101030000E94500A022F132F0150110919830883AF
:10104000DF91CF911F910F91FF90EF90DF90CF90A4
:10105000BF90AF909F908F900895CF93DF9300D073
:10106000CDB7DEB71A821982BE016F5F7F4F0E9433
:10107000EA07898189B98A8180BD8AB188618AB984
:101080008AB1806C8AB986E880BD0F900F90DF919D
:10109000CF9108955F9BFECF2CB1FC0120838BB1D3
:1010A00080688BB908959093080180930701089593
:1010B0001F920F920FB60F9211242F933F934F93CD
:1010C0005F936F937F938F939F93AF93BF93EF93B0
:1010D000FF930E94C406E0910701F0910801309748
:1010E00009F009950E94C006FF91EF91BF91AF9161
:1010F0009F918F917F916F915F914F913F912F9130
:101100000F900FBE0F901F9018951F920F920FB661
:101110000F9211242F933F934F935F936F937F937D
:101120008F939F93AF93BF93EF93FF930E94C40657
:10113000E0910501F0910601309709F009950E94B0
:10114000C006FF91EF91BF91AF919F918F917F91D9
:101150006F915F914F913F912F910F900FBE0F9024
:101160001F9018950E94C6080C94A7090E94A00918
:1011700058F00E94990940F029F45F3F29F00C943F
:10118000900951110C94DB090C9496090E94B8093E
:1011900068F39923B1F3552391F3951B550BBB27A6
:1011A000AA2762177307840738F09F5F5F4F220FEB
:1011B000331F441FAA1FA9F335D00E2E3AF0E0E8E2
:1011C00032D091505040E695001CCAF72BD0FE2F2C
:1011D00029D0660F771F881FBB1F261737074807C0
:1011E000AB07B0E809F0BB0B802DBF01FF27935878
:1011F0005F4F3AF09E3F510578F00C9490090C94A3
:10120000DB095F3FE4F3983ED4F3869577956795C5
:10121000B795F7959F5FC9F7880F911D96958795AC
:1012200097F90895E1E0660F771F881FBB1F6217CB
:1012300073078407BA0720F0621B730B840BBA0B89
:10124000EE1F88F7E09508950E94C00988F09F5727
:1012500098F0B92F9927B751B0F0E1F0660F771FDA
:10126000881F991F1AF0BA95C9F714C0B13091F0D0
:101270000E94DA09B1E008950C94DA09672F782FFB
:101280008827B85F39F0B93FCCF386957795679595
:10129000B395D9F73EF490958095709561957F4F01
:1012A0008F4F9F4F0895E89409C097FB3EF49095A7
:1012B0008095709561957F4F8F4F9F4F9923A9F02F
:1012C000F92F96E9BB279395F695879577956795BE
:1012D000B795F111F8CFFAF4BB0F11F460FF1BC002
:1012E0006F5F7F4F8F4F9F4F16C0882311F096E995
:1012F00011C0772321F09EE8872F762F05C0662343
:1013000071F096E8862F70E060E02AF09A95660FFB
:10131000771F881FDAF7880F9695879597F90895B4
:1013200097F99F6780E870E060E008959FEF80EC98
:10133000089500240A94161617061806090608953B
:1013400000240A9412161306140605060895092EA1
:101350000394000C11F4882352F0BB0F40F4BF2B10
:1013600011F460FF04C06F5F7F4F8F4F9F4F089550
:1013700057FD9058440F551F59F05F3F71F0479546
:10138000880F97FB991F61F09F3F79F0879508952B
:10139000121613061406551FF2CF4695F1DF08C04A
:1013A000161617061806991FF1CF86957105610567
:1013B00008940895E894BB2766277727CB0197F90F
:1013C00008950E94F4090C94A7090E94990938F025
:1013D0000E94A00920F0952311F00C9490090C9420
:1013E000960911240C94DB090E94B80970F3959FAB
:1013F000C1F3950F50E0551F629FF001729FBB270C
:10140000F00DB11D639FAA27F00DB11DAA1F649FA7
:101410006627B00DA11D661F829F2227B00DA11D5A
:10142000621F739FB00DA11D621F839FA00D611DE0
:10143000221F749F3327A00D611D231F849F600D01
:10144000211D822F762F6A2F11249F5750409AF02A
:10145000F1F088234AF0EE0FFF1FBB1F661F771FB6
:10146000881F91505040A9F79E3F510580F00C9481
:1014700090090C94DB095F3FE4F3983ED4F3869522
:1014800077956795B795F795E7959F5FC1F7FE2B21
:10149000880F911D9695879597F90895689401C0D6
:1014A000E8948F929F92CF93DF930E945C0ADF9122
:1014B000CF919F908F90089588249924F401E4019E
:1014C000B0E49F93AA279A158B049C04ED05FE05B2
:1014D000CF05D007A10798F4AD2FDC2FCF2FFE2F1B
:1014E000E92D982C892E982F872F762F652F542F32
:1014F000432F322F2227B85031F7BF9127C01B2E20
:10150000BF91BB27220F331F441F551F661F771F34
:10151000881F991F881C991CEE1FFF1FCC1FDD1F01
:10152000AA1FBB1F8A149B04EC05FD05CE05DF0531
:10153000A007B10748F08A189B08EC09FD09CE09FD
:10154000DF09A00BB10B21601A94E1F62EF494018F
:10155000AF01BE01CD01000C08950F93083090F04B
:10156000982F872F762F652F542F432F322F222726
:101570000850F4CF220F331F441F551F661F771FDB
:10158000881F991F0A95B2F70F9108950024A7FDAF
:1015900000942A0F301D401D501D601D701D801DC0
:1015A000901D0895AEE0B0E0E8EDFAE00C94930DE4
:1015B0000D891E8986E08C831A8309838FEF9FE74C
:1015C0009E838D83AE01475E5F4F6F89788DCE011C
:1015D00001960E94F40AEF81F885E00FF11F108256
:1015E0002E96E4E00C94AF0DABE0B0E0EAEFFAE049
:1015F0000C94850D6C017B018A01FC011782168217
:10160000838181FFCCC1CE0101963C01F60193811B
:10161000F70193FD859193FF81917F01882309F460
:10162000BAC1853239F493FD859193FF81917F0191
:10163000853229F4B60190E00E94EB0CE7CF912CA3
:10164000212C312CFFE1F315D8F08B3279F038F4EE
:10165000803279F08332A1F4232D20611DC08D32B8
:1016600061F0803369F4232D216016C0832D8260E0
:10167000382EE32DE4603E2E2AC0F32DF8601DC005
:1016800037FC2DC020ED280F2A3040F08E32B9F4FF
:1016900036FC81C1232D2064322E19C036FE06C0CF
:1016A0008AE0989E200D1124922E11C0EAE02E9E11
:1016B000200D1124222EF32DF0623F2E08C08C360F
:1016C00021F4832D8068382E02C0883641F4F7015A
:1016D00093FD859193FF81917F018111B3CF982F65
:1016E0009F7D9554933028F40C5F1F4F9FE399839F
:1016F0000DC0833631F0833771F0833509F059C05E
:1017000021C0F801808189830E5F1F4F8824839454
:10171000912C530113C02801F2E04F0E511CF80127
:10172000A080B18036FE03C0692D70E002C06FEF6B
:101730007FEFC5010E94E00C4C018201F32DFF7781
:101740003F2E16C0280122E0420E511CF801A08055
:10175000B18036FE03C0692D70E002C06FEF7FEFED
:10176000C5010E94D50C4C01F32DF0683F2E82017B
:1017700033FC1BC0822D90E088169906B0F4B601A8
:1017800080E290E00E94EB0C2A94F4CFF50137FC44
:10179000859137FE81915F01B60190E00E94EB0CCC
:1017A00021102A9421E0821A91088114910471F782
:1017B000E8C0843611F0893641F5F80137FE07C0DC
:1017C00060817181828193810C5F1F4F08C06081AD
:1017D0007181072E000C880B990B0E5F1F4FF32DA4
:1017E000FF763F2E97FF09C0909580957095619583
:1017F0007F4F8F4F9F4FF0683F2E2AE030E0A301CC
:101800000E94270D882E861845C0853731F4232D78
:101810002F7EB22E2AE030E025C0932D997FB92E7D
:101820008F36C1F018F4883579F0B5C0803719F0DB
:10183000883721F0B0C0E92FE061BE2EB4FE0DC0A4
:10184000FB2DF460BF2E09C034FE0AC0292F26608C
:10185000B22E06C028E030E005C020E130E002C032
:1018600020E132E0F801B7FE07C06081718182811A
:1018700093810C5F1F4F06C06081718180E090E012
:101880000E5F1F4FA3010E94270D882E8618FB2D87
:10189000FF773F2E36FE0DC0232D2E7FA22E8914FA
:1018A00058F434FE0BC032FC09C0832D8E7EA82E66
:1018B00005C0B82CA32C03C0B82C01C0B92CA4FEC1
:1018C0000FC0FE01E80DF11D8081803321F49A2DB7
:1018D000997EA92E09C0A2FE06C0B394B39404C099
:1018E0008A2D867809F0B394A3FC11C0A0FE06C02F
:1018F000B21488F4280C922C9B180EC0B21460F419
:10190000B60180E290E00E94EB0CB394F7CFB214E2
:1019100018F42B1802C0982C212CA4FE10C0B6017C
:1019200080E390E00E94EB0CA2FE17C0A1FC03C074
:1019300088E790E002C088E590E0B6010CC08A2DEF
:10194000867859F0A1FE02C08BE201C080E2A7FCBC
:101950008DE2B60190E00E94EB0C891438F4B601D8
:1019600080E390E00E94EB0C9A94F7CF8A94F30105
:10197000E80DF11D8081B60190E00E94EB0C811012
:10198000F5CF222009F442CEB60180E290E00E9419
:10199000EB0C2A94F6CFF6018681978102C08FEF77
:1019A0009FEF2B96E2E10C94A10DFC010590615094
:1019B00070400110D8F7809590958E0F9F1F089565
:1019C000FC016150704001900110D8F7809590950E
:1019D0008E0F9F1F08950F931F93CF93DF93FB01EB
:1019E000238121FD03C08FEF9FEF2CC022FF16C083
:1019F00046815781248135814217530744F4A081E1
:101A0000B1819D012F5F3F4F318320838C932681CD
:101A100037812F5F3F4F3783268314C08B01EC0142
:101A2000FB010084F185E02D0995892BE1F6D801B1
:101A300016968D919C911797019617969C938E936D
:101A40001697CE01DF91CF911F910F910895FA0162
:101A5000AA27283051F1203181F1E8946F936E7FED
:101A60006E5F7F4F8F4F9F4FAF4FB1E03ED0B4E0DE
:101A70003CD0670F781F891F9A1FA11D680F791F1F
:101A80008A1F911DA11D6A0F711D811D911DA11D30
:101A900020D009F468943F912AE0269F1124301940
:101AA000305D3193DEF6CF010895462F4770405DDB
:101AB0004193B3E00FD0C9F7F6CF462F4F70405D8A
:101AC0004A3318F0495D31FD4052419302D0A9F7E5
:101AD000EACFB4E0A6959795879577956795BA95DF
:101AE000C9F700976105710508959B01AC010A2EA5
:101AF00006945795479537952795BA95C9F7620F7C
:101B0000731F841F951FA01D08952F923F924F921F
:101B10005F926F927F928F929F92AF92BF92CF927D
:101B2000DF92EF92FF920F931F93CF93DF93CDB786
:101B3000DEB7CA1BDB0B0FB6F894DEBF0FBECDBFFE
:101B400009942A88398848885F846E847D848C84CF
:101B50009B84AA84B984C884DF80EE80FD800C81D8
:101B60001B81AA81B981CE0FD11D0FB6F894DEBFBB
:0C1B70000FBECDBFED010895F894FFCF2B
:101B7C00414155544F2020004D414E55414C00469B
:101B8C0049524520414C41524D2049532000546547
:101B9C006D702076616C75652069732000464C4130
:101BAC004D45204445544543544544202020202095
:101BBC0020004E4F20464C414D4520444554454352
:101BCC00544544202020004741532044455445436C
:101BDC0054454420202020202020004E4F204741F7
:101BEC005320444554454354454420202020002F85
:0E1BFC00002E002D0025640025302E316600DD
:00000001FF
